:0400000049EF13F0C1
:1000080000C01EF001C01DF002C01CF003C01BF0B0
:1000180004C01AF005C019F008C018F009C017F09C
:100028000AC016F00BC015F0E1CF27F0E2CF28F098
:10003800E9CF25F0EACF26F0F3CF23F0F4CF24F070
:10004800F5CF22F0F8CF1FF0F7CF20F0F6CF21F050
:10005800F2A412D05B500001D35D02E15A50D25D88
:1000680003E2D24BD32B07D0D26BD36BA7EC10F0A3
:10007800F29A01016A83F294A1A802D0A7EC0FF0CA
:10008800F2A206D001016A81F292A0929194F29AAA
:1000980098A418D0000E0001871902E1180E8619DD
:1000A80008E1A0929194150E0F01246FA00E236F02
:1000B80009D00001864B872B9894150E0F01246FE9
:1000C800A00E236F22C0F5FF1FC0F8FF20C0F7FF66
:1000D80021C0F6FF23C0F3FF24C0F4FF1EC000F0C8
:1000E8001DC001F01CC002F01BC003F01AC004F0D0
:1000F80019C005F018C008F017C009F016C00AF0BA
:1001080015C00BF025C0E9FF26C0EAFF27C0E1FFB4
:0601180028C0E2FF110007
:10011E000B6A0A6A096A00500402F4CF09F0F3CFA1
:10012E0008F001500502F4CF0BF0F3CF0AF00050A7
:10013E000502F3500926F4500A22E86A0B220150F8
:10014E000402F3500926F4500A22E86A0B2208C072
:10015E0000F009C001F00AC002F00BC003F012005B
:10016E001E0E0F01276F100E0001EA6F0D0EEB6FC2
:10017E00EAC0E1FFEBC0E2FFE69EEAC0E1FFEBC0A2
:10018E00E2FFE69C040EEA25E16E000EEB21E26E24
:10019E00E68C180E0101686F0D0E696F68C1E1FFE4
:1001AE0069C1E2FFE69E68C1E1FF69C1E2FFE69C1C
:1001BE00040E6825E16E000E6921E26EE68C020ED9
:1001CE000001EA25E16E000EEB21E26E6BC1E6FF47
:1001DE006CC1E6FF010EEA25E16E000EEB21E26E28
:1001EE00400EE66EEAC0E9FFEBC0EAFFEECF00F08C
:1001FE00EAC0E1FFEBC0E2FF400E0014E66EEAC07B
:10020E00E9FFEBC0EAFFEECF00F0EAC0E1FFEBC082
:10021E00E2FF880E0010E66EEAC06EF1EBC06FF1E1
:0C022E00040EEA19006E00C0EAF0120095
:10023A00000E0101415D02E1080E405D10E240C17D
:10024A0003F041C104F04251000A03E1010E426F7A
:10025A0005D04251010A02E1020E426F04D0080E93
:10026A00036E000E046E66C1E1FF67C1E2FFE6920B
:10027A0066C1E1FF67C1E2FFE69066C1E9FF67C1B7
:10028A00EAFFEECF00F066C1E1FF67C1E2FF04506A
:10029A000010E66E010E6625E16E000E6721E26E21
:1002AA0003C0E6FF0350405D006E04504159016EE1
:1002BA0000C040F101C041F1280E5C6F0D0E5D6F68
:1002CA003FB12FD0035004102BE03CC1F6FF3DC1D3
:1002DA00F7FF3EC1F8FF0900F5CF00F05CC1E1FF6E
:1002EA005DC1E2FF00C0E6FF5C4B5D2B010E3C25C1
:1002FA00006E000E3D21016E000E3E21026E00C00E
:10030A003CF101C03DF102C03EF1010E035C006EFA
:10031A00000E0458016E00C003F001C004F0D2D7E9
:10032A0024D00350041021E03CC1E9FF3DC1EAFF9B
:10033A005CC1E1FF5DC1E2FFEECFE6FF5C4B5D2BE6
:10034A00010E3C25006E000E3D21016E00C03CF1FD
:10035A0001C03DF1010E035C006E000E0458016EEF
:0C036A0000C003F001C004F0DCD712005A
:100376000D01286B296B4AD001013F8F0D012881A1
:1003860001016D51010A02E10D01288354D00101DA
:100396003F8F51D001013F8F0D0124BF16D024CDD0
:1003A60003F00F0E031603C000F0000E016E0036B8
:1003B60000900136E80E0024E96E000E0120EA6E78
:1003C600EECF04F0EECF05F015D024CD03F00F0EDE
:1003D600031603C000F0000E016E003600900136D1
:1003E600660E0024E96E010E0120EA6EEECF04F0DF
:1003F600EECF05F004C0E9FF05C0EAFFEECF01F03D
:1004060001A403D00D01010E286F15D020CD01F0F7
:100416001F0E01160150000AAFE020CD01F01F0E9D
:1004260001160150010AB3E020CD01F01F0E01169E
:100436000150020AAFE001013FAF07D0280E3C6F22
:0C0446000D0E3D6F3F81020E406F120052
:1004520020CD01F01F0E01160150010A01E094D0D7
:100462000D012451000A01E08FD02151060A42E118
:1004720037D001013951010A17E14B0E006E280EE7
:10048200016E000E026E120E0026000E01220222E2
:1004920000C03CF101C03DF102C03EF1090E406FC7
:1004A200000E416FC00E3F6F25D001013951010A84
:1004B20012E1960E006E280E016E000E026E00C052
:1004C2003CF101C03DF102C03EF1210E406F000E31
:1004D200416FC00E3F6F0ED00101800E3F6F0AD0F8
:1004E2000D012351210AC5E02351220ADEE02351E6
:1004F200230AF2E020CD01F0600E0116050E006E17
:10050200005004E00132019EFF0FFBD70150010AA7
:1005120001E03AD026D038D037D03B0E01013C6FF3
:10052200010E3D6F010E406F000E416FC10E3F6F15
:100532002BD00101800E3F6F23CD3BF125D001016D
:10054200380E3C6F010E3D6F010E406F000E416F81
:10055200810E3F6F19D00101800E3F6F22CD38F11D
:1005620013D00D012151010AD6E02151090AD4E02C
:100572002151020AD2E021510A0ADBE02151030A89
:0A058200DEE021510B0AE7E0120051
:10058C000D012251010A13E120CD01F01F0E0116BD
:10059C000150000A0CE101013F8F0D012151030AAA
:1005AC0004E1010E01016D6F02D001016D6B0D01B3
:1005BC002251000AD8A48DD020CD01F01F0E0116B7
:1005CC000150020AD8A485D024CD01F00F0E0116DB
:1005DC000150000AD8B47DD001013F8F0D0124BF1A
:1005EC0016D024CD03F00F0E031603C000F0000E3E
:1005FC00016E003600900136E80E0024E96E000E04
:10060C000120EA6EEECF04F0EECF05F015D024CD2C
:10061C0003F00F0E031603C000F0000E016E00363F
:10062C0000900136660E0024E96E010E0120EA6E80
:10063C00EECF04F0EECF05F02151030A07E104C020
:10064C00E1FF05C0E2FF840EE66E43D024CD00F03E
:10065C000F0E0016260E026E0F0E036E00500226B1
:10066C00D8B0032A02C0E9FF03C0EAFFFE0EEE1465
:10067C00006EEECF01F0FF0E011602C0E1FF03C0C9
:10068C00E2FF00C0E6FF01C0E6FF24AF11D004C0BA
:10069C00E1FF05C0E2FFE66A040E0418006E00C01C
:1006AC0004F004C0E1FF05C0E2FF400EE66E11D07D
:1006BC0004C0E1FF05C0E2FF880EE66E040E0418CC
:1006CC00006E00C004F004C0E1FF05C0E2FFC80EDC
:0406DC00E66E1200B4
:1006E00001013F8F0F01276B0101616B22CD39F1B1
:1006F0003951000A03E1100E436F03D0200E436FFF
:0407000036DD1200D0
:100704000D012051800AD8A478D0C00E01013F6F9A
:1007140069D00101B70E006E280E016E000E026E44
:1007240000C03CF101C03DF102C03EF1120E406F29
:10073400000E416F62D00101030E006E000E016EC7
:1007440022CD04F0000E056EE8DC2C0E0024E96EC8
:10075400010E0120EA6EEECF3CF1EECF3DF1EECF7B
:100764003EF1020E3C25F66E000E3D21F76E000EA2
:100774003E21F86E0900F5CF00F00900F5CF01F035
:1007840000C040F101C041F138D00D0122510101F6
:10079400605D23E3030E006E000E016E22CD04F0B3
:1007A400000E056EBADC2F0E0024E96E010E012046
:1007B400EA6EEECF3CF1EECF3DF1EECF3EF13CC11F
:1007C400F6FF3DC1F7FF3EC1F8FF0900F5CF00F089
:1007D40000C040F1000E416F01D03F6B0ED001010B
:1007E4003F6B0BD00D012351010A93E02351020A00
:0C07F400A2E02351030AC9E0F2D7120072
:100800000101506B66C1E1FF67C1E2FFE66A040EB9
:100810006619E16E67C1E2FF000EE21AE66A47AFB1
:0608200001D0479F120009
:10082600010E01014E25E96E000E4F21EA6EEECF54
:1008360000F000C002F0000E495D02E10250485D82
:1008460003E248C102F00AD00250485D006E000E75
:100856004959016E00C048F101C049F1036A0250CE
:10086600035C1CE2280EE96E0D0EEA6E0350E926C3
:10087600D8B0EA2AEECF00F045C1E1FF46C1E2FF5B
:1008860000C0E6FF010E4525006E000E4621016EF2
:1008960000C045F101C046F1032AE1D7000E006E03
:1008A6004951005C02E14851000828E2010E512539
:1008B600E16E000E5221E26E080EE66E020E512522
:1008C600E16E000E5221E26E280EE66E0D0EE66E09
:1008D6004EC1E9FF4FC1EAFFEECF00F000BC07D0E2
:1008E60051C1E1FF52C1E2FFC80EE66E06D051C10A
:1008F600E1FF52C1E2FF880EE66E19D0010E5125C6
:10090600E16E000E5221E26E080EE66E020E5125D1
:10091600E16E000E5221E26E200EE66E0D0EE66EC0
:1009260051C1E1FF52C1E2FF840EE66E479F1200FD
:10093600659801013FBF49D047AF28D0020E506FDE
:10094600010E6625E16E000E6721E26EE66A66C15B
:10095600E1FF67C1E2FFC80EE66E010E5125E16EAA
:10096600000E5221E26E080EE66E020E5125E16E71
:10097600000E5221E26E280EE66E0D0EE66E51C195
:10098600E1FF52C1E2FFC80EE66E1ED0010E5125F0
:10099600E16E000E5221E26E080EE66E020E512541
:1009A600E16E000E5221E26E200EE66E0D0EE66E30
:1009B60051C1E1FF52C1E2FF8C0EE66E66C1E1FF56
:1009C60067C1E2FF840EE66E82D047BF80D00D017C
:1009D60020AF55D0010141510D01275D04E1010110
:1009E60040510D01265D04E226CD40F127CD41F1AF
:1009F60021DC010E506F010E5125E16E000E5221D1
:100A0600E26E080EE66E020E5125E16E000E5221D0
:100A1600E26E200EE66E0D0EE66E51C1E1FF52C18A
:100A2600E2FF800EE66E446B010E4E25E16E000E6F
:100A36004F21E26E080EE66E020E4E25E16E000EA6
:100A46004F21E26E200EE66E0D0EE66E4EC1E1FF00
:100A56004FC1E2FF840EE66E010E446F020E66255C
:100A6600E16E000E6721E26E280EE66E0D0EE66E52
:100A760066C1E1FF67C1E2FFC80EE66E28D001013C
:100A8600020E506F010E6625E16E000E6721E26EC2
:100A9600E66A66C1E1FF67C1E2FFC80EE66E010EB7
:100AA6005125E16E000E5221E26E080EE66E020E30
:100AB6005125E16E000E5221E26E280EE66E0D0EF5
:100AC600E66E51C1E1FF52C1E2FFC80EE66E1200AA
:0A0AD60001013A5301E0BADC1200FE
:100AE00020CD01F0600E0116050E006E005004E0EE
:100AF0000132019EFF0FFBD70150000A01E05ED0DA
:100B00003AD001013F8F080E436F58D0FBDD56D01D
:100B1000E7DD54D0390E01013C6F010E3D6F3F817E
:100B2000010E406F3F8F4AD026DC48D02FDD46D0E3
:100B3000610E006E010E016E0D0124510026D8B029
:100B4000012A00C03CF101C03DF101013F81010ECD
:100B5000406F3F8F33D001013F8F610EE16E010E78
:100B6000E26E0D012451E126D8B0E22A22CDE6FF43
:100B700025D024D023D00D012151050AC2E02151F6
:100B8000060AC4E02151090AC3E02151080AC2E063
:100B90002151000AC9E02151010AC8E02151030A8C
:100BA000C5E021510A0AC4E021510B0AD4E02151C9
:0E0BB000070ADFE021510C0ADDE0DCD712005D
:100BBE004B0E01012C6F280E2D6F000E2E6FC90EDD
:100BCE002F6F280E306F000E316F740E326F280E9D
:100BDE00336F000E346F1B0E356F280E366F000EFE
:040BEE00376F12004B
:100BF200160E0F01396F9F0E376F3B0E366F1200C4
:0C0C02000F013685EF0E621665821200AD
:100C0E0066C1E9FF67C1EAFFEECF00F000AE05D086
:100C1E0066C1E1FF67C1E2FFE66A0101426B506BFC
:0E0C2E00406B416B3F6B55DF4FDF7EDE1200E7
:100C3C000F0126A119D04EC1E9FF4FC1EAFFEECF3B
:100C4C0001F00150800A0FE166C1E9FF67C1EAFFBC
:100C5C00EECF01F00150840A06E14EC1E1FF4FC115
:0E0C6C00E2FF8C0EE66E2691DF0E621612007D
:100C7A00A1DF6E6B6F6B5A6B5B6B636A626AB4DF80
:100C8A00658C386B276B659C01015E6B5F6B000E90
:100C9A005F5D02E1080E5E5D17E25EC100F05FC1B2
:100CAA0001F0003600900136003600900136000E41
:100CBA000024E16E0D0E0120E26EE66AE66AE66A3B
:100CCA00E66A5E4B5F2BE3D7160E0F01266F62A60C
:100CDA0003D0F70E6216FBD701013F6B476B486BD7
:100CEA00496B6598080E666F0D0E676F396B436B1B
:020CFA001200E6
:040CFC00A1981200A9
:100D000065920F01369562A403D0FB0E6216FBD7E5
:020D10001200CF
:100D1200040E01016619006E00C066F14351080A13
:100D22000DE122CD38FF0F013851000804E2100E08
:100D32000101436F03D00101040E436F5051010AB8
:100D42003BE1020E6625E16E000E6721E26E280E7F
:100D5200E66E0D0EE66E1DEC01F04251020A07E14D
:100D620066C1E1FF67C1E2FF840EE66E24D0040E85
:100D72006619006E00C066F166C1E9FF67C1EAFF4D
:100D8200EECF00F000BC0CD0040E6619006E00C05D
:100D920066F166C1E1FF67C1E2FFC80EE66E0BD0E5
:100DA200040E6619006E00C066F166C1E1FF67C1FC
:0C0DB200E2FF880EE66E01D022DD120088
:100DBE0001015051020A02E12FDD1ED01ADD44510D
:100DCE00000A19E1010E5125E16E000E5221E26E6C
:100DDE00080EE66E020E5125E16E000E5221E26EF5
:100DEE00200EE66E0D0EE66E51C1E1FF52C1E2FF1E
:0A0DFE008C0EE66E01D0446B12006B
:0E0E0800550EA76EAA0EA76E0E01BF91120026
:100E16000101846B856B866B020E8125F66E000ED2
:100E26008221F76E000E8321F86E0900F5CF05F0DA
:100E3600030E8125F66E000E8221F76E000E8321C9
:100E4600F86E0900F5CF00F000C003F0000E046E46
:100E560003C001F0006A05500024066E000E012052
:100E6600076E81C108F082C109F083C10AF0010E44
:100E76000824F66E000E0920F76E000E0A20F86EA2
:100E86000900F5CF01F00150020A1BE1060E082405
:100E9600F66E000E0920F76E000E0A20F86E0900A5
:100EA600F5CF01F00150845D0CE2060E0824F66EC3
:100EB600000E0920F76E000E0A20F86E0900F5CF25
:100EC60084F1010E0824F66E000E0920F76E000E5E
:100ED6000A20F86E0900F5CF01F00150040A1BE163
:100EE600080E0824F66E000E0920F76E000E0A2082
:100EF600F86E0900F5CF01F00150845D0CE2080E92
:100F06000824F66E000E0920F76E000E0A20F86E11
:100F16000900F5CF84F108C0F6FF09C0F7FF0AC043
:100F2600F8FF0900F5CF00F000508525016E000E90
:100F36008621026E01C085F102C086F10750025C6F
:100F460002E10650015C01E30FD008C0F6FF09C0BC
:100F5600F7FF0AC0F8FF0900F5CF00F00050082699
:0E0F6600000E09220A2283D784C100F0120077
:0E0F7400550EA76EAA0EA76E0E01BF811200C9
:0A0F8200D08EA288A088F28E120023
:100F8C00B70E006E280E016E000E026E0E0E0024BF
:100F9C00F66E000E0120F76E000E0220F86E0900AE
:100FAC00F5CF03F003C004F00F0E0024F66E000E14
:100FBC000120F76E000E0220F86E0900F5CF01F04B
:100FCC000150035C12E2B70E006E280E016E000E8B
:100FDC00026E0F0E0024F66E000E0120F76E000E4E
:100FEC000220F86E0900F5CF04F0B70E006E280E43
:100FFC00016E000E026E100E0024F66E000E012023
:10100C00F76E000E0220F86E0900F5CF01F00150CA
:10101C00045C12E2B70E006E280E016E000E026E1A
:10102C00100E0024F66E000E0120F76E000E02204A
:0E103C00F86E0900F5CF04F004C000F01200B9
:10104A00000E0101821902E1000E811902E1016A12
:10105A000AD081C1E9FF82C1EAFFEECF00F0000E9B
:0C106A0000BE010E016E01C000F012007B
:1010760001014351000A0BE1656A0F01366BB6DDCB
:1010860065B602D06586FCD7010E0101436F435158
:10109600010A0AE165BA08D0626A0F01366B368129
:1010A6003689020E0101436F62A406D00F0136A5F0
:1010B60003D0FB0E621621DE65A202D01CDEDCD058
:1010C60062A019D00F0136A116D0D4DD040E436FED
:1010D600200E0D01026F0D0E036F080E016F000E3C
:1010E6000015006E00C000FD8C0E0011006E00C0E1
:1010F60000FDFE0E621662A806D00F0136A903D0C7
:101106007DDDEF0E621662AC05D00F0136AD02D062
:10111600BF0E621662AA04D00F0136AB01D08BDD7A
:1011260062A204D00F0136A301D0636A040E010146
:10113600435D02E2E0DDA0D00F0136A79CD001019D
:10114600826B040E825DD8B096D062A691D064CF31
:1011560053F1F70E6216780E5315016E0150000A10
:10116600D8A485D0FD0E5315016E026AFF0E021635
:10117600000E021802E1000E01186BE17E0E5315F7
:10118600016E01C003F00332039E03C000F0000E9F
:10119600016E003600900136003600900136000ED2
:1011A6000024026E0D0E0120036E02C04EF103C034
:1011B6004FF102C051F103C052F1040E5119006EF5
:1011C60000C051F102C0E9FF03C0EAFFEECF00F014
:1011D60000C001F03C0E01160132019E0132019E53
:1011E60001500D0A34E1020E4E25E96E000E4F2124
:1011F600EA6EEECF01F0EECF02F002500D0A02E1E8
:10120600280E011822E1020E4E25E16E000E4F2136
:10121600E26E200EE66E0D0EE66E816B080E815DA7
:1012260014E2200EE16E0D0EE26E8151E126D8B079
:10123600E22A280EE96E0D0EEA6E8151E926D8B033
:10124600EA2AEECFE6FF812BE9D7DEDC01D0B4DD5A
:101256000DD0FD0E5315016E026AFF0E0216000E2A
:10126600021802E1040E011801E150DD00D001D0A0
:0A12760002D0822B66D73FDD120084
:1012800001018251000A12E081C100F0000E016EDE
:10129000003600900136660E0024E96E010E012032
:1012A000EA6EEECF04F0EECF05F011D081C100F070
:1012B000000E016E003600900136E80E0024E96E43
:1012C000000E0120EA6EEECF04F0EECF05F0020E24
:1012D0000424E16E000E0520E26E83C1E6FF84C1A6
:1012E000E6FF010E0424E16E000E0520E26E85C1CA
:1012F000E6FF04C0E9FF05C0EAFFEECF00F004C03E
:10130000E1FF05C0E2FF400E0014E66E04C0E9FFF5
:1013100005C0EAFFEECF00F004C0E1FF05C0E2FF28
:10132000880E0010E66E8251000A1BE081C100F0B9
:10133000000E016E003600900136660E0024026E2B
:10134000010E0120036E02C0E9FF03C0EAFF040E94
:10135000EE18006E02C0E1FF03C0E2FF00C0E6FF2E
:101360001AD081C100F0000E016E003600900136E7
:10137000E80E0024026E000E0120036E02C0E9FF99
:1013800003C0EAFF040EEE18006E02C0E1FF03C0C6
:10139000E2FF00C0E6FF04C000F005C001F012004B
:1013A000086A080E0C6E003408360450085ED8B087
:0E13B00002D00826D89000360C2EF5D7120079
:1013BE000101806B200E435D03E365B201D002D0C4
:1013CE00006A2DD06EC181F16FC182F137DE0052FD
:1013DE0025E16EC17EF16FC17FF1000E6F1902E142
:1013EE00000E6E190AE0010E7E25E96E000E7F21B9
:1013FE00EA6EEECF00F000C080F17DC181F1826B0C
:10140E007AC183F17BC184F17CC185F132DF00C0EA
:10141E006EF101C06FF180C100F001D0006A1200C0
:10142E007AC102F07BC103F002C000F003C001F0EC
:10143E00024A032A00C0E9FF01C0EAFFEE5201E0B2
:10144E00F3D701017A51025C006E7B510358016E95
:0A145E00010E005E000E015A12009C
:101468007EC100F001017E07005228E07AC1E9FF41
:101478007BC1EAFFEE50000A0CE07AC1E9FF7BC1AC
:10148800EAFF7CC1D9FF7DC1DAFFEE50DE1801E129
:101498000FD07AC1E9FF7BC1EAFF7CC1D9FF7DC1CA
:1014A800DAFFDE50EE5C006E016A000E015A08D0C9
:1014B80001017A4B7B2B7C4B7D2BD2D7006A016ACA
:0214C800120010
:1014CA0001014351000A0DE1656A0F01366BF9EC1F
:1014DA0005F052DD65B602D06586FCD7010E010122
:0414EA00436F12003A
:1014EE00200E0101435D03E365B201D002D0006A14
:1014FE004ED05AC181F15BC182F1A0DD005246E1AE
:10150E007DC181F1010E826F7AC183F17BC184F1BD
:10151E007CC185F1AEDE00C05AF101C05BF1566BA5
:10152E00576B586B596B5AC181F15BC182F186DDE5
:10153E00005217E0200E435D03E365B201D002D0E6
:10154E00006A25D0010E016E0150000A01E18CDD0A
:10155E000101565157115811591102E0006A17D066
:10156E00E2D75AC17EF15BC17FF1000E5B1902E139
:10157E00000E5A1909E0010E7E25E96E000E7F213C
:10158E00EA6EEECF00F003D0006A01D0006A1200BE
:10159E007AC1E9FF7BC1EAFFEE5001017C1905E13A
:1015AE007AC100F07BC101F010D07AC100F07BC18E
:1015BE0001F07A4B7B2B00C0E9FF01C0EAFFEECFB2
:0C15CE0000F00052E5E1006A016A120022
:1015DA00D8DC00C07AF14B0E0101816F280E826FB0
:1015EA00000E836F13DC00C07BF17A51005C03E2CA
:0C15FA007AC100F002D07BC100F01200AA
:10160600086A096A100E0C6E013408360936045051
:10161600085E0550D8A0053C095ED8B007D0045036
:1016260008260550D8B0053C0926D8900036013664
:061636000C2EEAD71200A1
:10163C0001017A51180808E37A510D0804E2110EE1
:10164C007A5D01E201D002D0006AFAD17B51000A26
:10165C00D8A48FD07D5302E004EC07F042D07CC1BB
:10166C00C0FE82D07CC1C1FE7FD07CC1C2FE7CD0CA
:10167C007CC1C3FE79D07CC1C4FE76D07CC1C5FED2
:10168C0073D07CC1C6FE70D07CC1C7FE6DD07CC14E
:10169C00C8FE6AD07CC1C9FE67D07CC1CAFE64D0CA
:1016AC007CC1CBFE61D07CC1CCFE5ED07CC1CDFEBA
:1016BC005BD07CC1D1FE58D07CC1D2FE55D07CC150
:1016CC00D3FE52D07CC1D4FE4FD07CC1D5FE4CD0C1
:1016DC007CC1D6FE49D07CC1D7FE46D07CC1D8FE99
:1016EC0043D001017A51000ABAE07A51010ABAE0FA
:1016FC007A51020ABAE07A51030ABAE07A51040A22
:10170C00BAE07A51050ABAE07A51060ABAE07A517F
:10171C00070ABAE07A51080ABAE07A51090ABAE023
:10172C007A510A0ABAE07A510B0ABAE07A510C0AD9
:10173C00BAE07A510D0ABAE07A51110ABAE07A513C
:10174C00120ABAE07A51130ABAE07A51140ABAE0D2
:10175C007A51150ABAE07A51160ABAE07A51170A88
:10176C00BAE07A51180ABAE001017D5302E0BAECF2
:10177C0007F001017B51010AD8A477D07D5302E018
:10178C0004EC07F036D07AC1E1FE6AD07AC1E2FEF1
:10179C0067D07AC1E3FE64D07AC1E4FE61D07AC12D
:1017AC00E6FE5ED07AC1E7FE5BD07AC1E8FE58D087
:1017BC007AC1E9FE55D07AC1EAFE52D07AC1F2FE66
:1017CC004FD07AC1F3FE4CD07AC1F4FE49D07AC125
:1017DC00F7FE46D07AC1F8FE43D07AC1FCFE40D069
:1017EC007AC1FDFE3DD07AC1FEFE3AD07AC1FFFE31
:1017FC0037D001017C51000AC6E07C51010AC6E0D9
:10180C007C51020AC6E07C51030AC6E07C51040AF2
:10181C00C6E07C51050AC6E07C51060AC6E07C5144
:10182C00070AC6E07C51080AC6E07C51090AC6E0EA
:10183C007C510A0AC6E07C510B0AC6E07C510C0AAA
:10184C00C6E07C510D0AC6E07C510E0AC6E07C5104
:10185C000F0AC6E07C51100AC6E07C51110AC6E0A2
:10186C0001017D5302E0BAEC07F09AD001017BB183
:10187C0002D0929001D09280E1D001017BB102D0D4
:10188C00929201D09282DAD001017BB102D0929A6D
:10189C0001D0928AD3D001017BB102D0939001D0B8
:1018AC009380CCD001017BB102D0939201D0938272
:1018BC00C5D001017BB102D0939401D09384BED0EA
:1018CC0001017BB102D0939601D09386B7D0010170
:1018DC007BB102D0939801D09388B0D001017BB139
:1018EC0002D0939A01D0938AA9D001017BB102D086
:1018FC00939C01D0938CA2D001017BB102D0939E1A
:10190C0001D0938E9BD001017BB102D0949001D079
:10191C00948094D001017BB102D0949201D0948236
:10192C008DD001017BB102D0949401D0948486D0E7
:10193C0001017BB102D0949C01D0948C7FD0010129
:10194C007BB102D0949E01D0948E78D001017BB1F2
:10195C0002D0959401D0958471D001017BB102D055
:10196C00959601D095866AD001017BB102D09598ED
:10197C0001D0958863D001017BB102D0959A01D03A
:10198C00958A5CD001017BB102D0959C01D0958CDD
:10199C0055D001017BB102D0959E01D0958E4ED0D1
:1019AC0001017A51000AD8B461D77A51010AD8B42E
:1019BC0064D77A51020AD8B467D77A51030AD8B4DB
:1019CC006AD77A51040AD8B46DD77A51050AD8B4BB
:1019DC0070D77A51060AD8B473D77A51070AD8B49B
:1019EC0076D77A51080AD8B479D77A51090AD8B47B
:1019FC007CD77A510A0AD8B47FD77A510B0A83E084
:101A0C007A510C0A87E07A510D0A8BE07A51110A4F
:101A1C008FE07A51120A93E07A51130A97E07A51C7
:101A2C00140A9BE07A51150A9FE07A51160AA3E03A
:101A3C007A51170AA7E07A51180AABE0FF0E006E34
:021A4C00120086
:101A4E006BC17AF16CC17BF1400E01017C6F010E0E
:061A5E007D6FAEDC1200FA
:0C1A6400949CCA840C0E0F0103131200A6
:101A7000CB50010F006E016A000E012273C104F009
:101A8000000E056E8FEC00F0060E026E00C004F032
:101A900001C005F0025005E005320432059EFF0F3B
:101AA000FAD7040E016E04C000F0015004E00036C5
:101AB0000090FF0FFBD7300E0014036E04C000F03F
:101AC00005C001F001320032019E01320032019E58
:101AD00000C004FF0F0E0F01031703500313120081
:0A1AE0000F01046B0399039B120031
:101AEA0073C17AF174C17BF175C17CF1010E0101F8
:061AFA007D6F9FDD12006C
:101B000073C102F074C103F076C100F077C101F037
:101B1000010E0101765F000E775B0050011009E0B5
:101B200002C0E1FF03C0E2FF75C1E6FF024A032ADB
:0C1B3000EBD773C100F074C101F012008B
:101B3C000101766B030E765D0AE276517425E16E37
:101B4C00000E7521E26E200EE66E762BF3D77651E1
:101B5C007425E16E000E7521E26EE66A7607765109
:101B6C007425776F000E7521786F0A0E046E73C1A1
:101B7C0000F010DC08C000F0300E002677C1E1FF49
:101B8C0078C1E2FF00C0E6FF0A0E046E73C100F0DC
:101B9C0001DC00C073F10050000A01E102D07607AD
:041BAC00DED712006E
:101BB0000101776B050E775D0AE277517525E16EBD
:101BC000000E7621E26E200EE66E772BF3D777516A
:101BD0007525E16E000E7621E26EE66A7707775191
:101BE0007525786F000E7621796F0A0E046E000E4F
:101BF000056E73C100F074C101F005DD08C000F08E
:101C000009C001F0300E002678C1E1FF79C1E2FF82
:101C100000C0E6FF0A0E046E000E056E73C100F0F0
:101C200074C101F0F0DC00C073F101C074F1000E6A
:101C3000011802E1000E001801E102D07707CFD7AA
:021C4000120090
:101C420075C104F076C105F073C102F074C103F0EE
:101C520077C100F078C101F0010E0101775F000E3B
:101C6200785B005001100FE004C0E9FF05C0EAFFF5
:101C720002C0E1FF03C0E2FFEECFE6FF024A032A01
:101C8200044A052AE5D773C100F074C101F01200BD
:101C920073C104F074C105F004C0E9FF05C0EAFF96
:101CA200EE5203E0044A052AF7D704C002F005C049
:101CB20003F0044A052A75C100F076C101F0010162
:101CC200754B762B00C0E9FF01C0EAFF02C0E1FFBD
:101CD20003C0E2FFEECFE6FF02C0E9FF03C0EAFF66
:101CE200EE5201E0E2D773C100F074C101F01200BC
:101CF2007A6A7B6A150E0F01246FA00E236FA082F1
:041D020091841200B6
:101D06000101756B766B73C103F074C104F073C186
:101D160005F074C106F003C0E9FF04C0EAFFEE5007
:101D2600200A04E17551761101E110D0010E756F9C
:101D3600000E766F03C0E9FF04C0EAFF05C0E1FFAD
:101D460006C0E2FFEECFE6FF054A062A03C001F011
:101D560004C002F0034A042A01C0E9FF02C0EAFFF8
:101D6600EE50000AD8E173C100F074C101F0120010
:101D760031DC00C060F1010E3A6F73C16BF174C1C2
:101D86006CF175C154F176C155F13DEC06F0010ECA
:0E1D9600016E0150010A02E165EC0AF0120034
:101DA400000E0101741902E1000E731937E073C1CA
:101DB400E9FF74C1EAFFEE5231E075C17AF176C1F0
:101DC4007BF117EC0AF000C07EF173C17AF174C1A3
:101DD4007BF175C17CF176C17DF134EC0AF0000E23
:101DE400011802E1000E001805E173C100F074C18E
:101DF40001F016D0010E010173257A6F000E7421D3
:101E04007B6F75C1E9FF76C1EAFFEECF7CF1CFECC1
:101E14000AF000C073F101C074F1C2D7006A016A0C
:021E24001200AA
:101E260073C17AF174C17BF175C17CF1010E0101B8
:081E36007D6F77EC0AF0120049
:101E3E0073C17AF174C17BF117EC0AF0005073256F
:101E4E00756F01507421766F010E755F000E765B13
:101E5E0075C1E9FF76C1EAFFEE50200A07E1745121
:101E6E00765D02E17351755D01E3EED7010E7525C6
:101E7E00E16E000E7621E26EE66A73C100F074C167
:041E8E0001F012004D
:101E920070C15AF071C15BF001016A936A91F28AD2
:021EA20012002C
:101EA400C26AC16AFF0E0F01486FFF0E496F938625
:101EB400060E0101736F010E746F040E756F13DE4D
:101EC40000C045F0000E466E810E796E310E0F0192
:101ED400226FA1929894EC0E0101736F000E746F3F
:101EE400880E756F000E766F44DFF28E95869584AA
:101EF4009290929289908992898089829394949CF9
:101F0400090E0B6E1E0E0C6EE40E0D6E0D2EFED71A
:101F14000C2EFCD70B2EFAD70000476A486A400EF5
:101F2400736F1F0E746F000E756F766FD7DD01012E
:101F3400736B9CDD8194870ED56E480ED76EE50ECB
:0A1F4400D66EF288F18CF28E1200C6
:101F4E0001014351010A09E165BA07D0626A0F0126
:101F5E0036813689020E0101436F62A407D00F014C
:101F6E0036A504D0FB0E621680EC06F065A203D0F7
:101F7E007EEC06F0E4D062A01AD00F0136A117D085
:101F8E003DEC06F0040E436F200E0D01026F0D0E98
:101F9E00036F080E016F000E0015006E00C000FDED
:101FAE008C0E0011006E00C000FDFE0E621662A8BF
:101FBE0007D00F0136A904D001EC06F0EF0E621621
:101FCE0062AC05D00F0136AD02D0BF0E621662AA0A
:101FDE0005D00F0136AB02D01EEC06F062A204D083
:101FEE000F0136A301D0636A040E0101435D03E2C3
:101FFE007EEC06F0A4D00F0136A79FD00101886BAE
:10200E00040E885DD8B099D062A694D064CF53F1F7
:10201E00F70E6216780E5315016E0150000AD8A401
:10202E0088D0FD0E5315016E026AFF0E0216000EC9
:10203E00021802E1000E01186DE17E0E5315016EBD
:10204E0001C003F00332039E03C000F0000E016EC8
:10205E00003600900136003600900136000E002446
:10206E00026E0D0E0120036E02C04EF103C04FF141
:10207E0002C051F103C052F1040E5119006E00C09E
:10208E0051F102C0E9FF03C0EAFFEECF00F000C03D
:10209E0001F03C0E01160132019E0132019E0150EB
:1020AE000D0A35E1020E4E25E96E000E4F21EA6E45
:1020BE00EECF01F0EECF02F002500D0A02E1280E33
:1020CE00011822E1020E4E25E16E000E4F21E26E46
:1020DE00200EE66E0D0EE66E876B080E875D14E21F
:1020EE00200EE16E0D0EE26E8751E126D8B0E22A87
:1020FE00280EE96E0D0EEA6E8751E926D8B0EA2A4F
:10210E00EECFE6FF872BE9D707EC06F002D0DFEC27
:10211E0006F00ED0FD0E5315016E026AFF0E02166A
:10212E00000E021802E1040E011802E189EC06F01D
:10213E0000D001D002D0882B63D77EEC06F01200BF
:0A214E00948CF00E0F01031712002D
:102158007ADC005201E1FCD78970EC0E7A6F000E30
:102168007B6F500E7C6F000E7D6F070E7E6F34EC18
:102178000AF000C045F001C046F0000E011802E167
:10218800000E0018D8A4A3D1EC0E0101736F000E45
:10219800746F490E756F000E766F00DE00C045F053
:1021A80001C046F0000E011802E1000E001807E019
:1021B800300E0001F75D4E6E4F6A000E4F5AEC0E5E
:1021C8000101736F000E746F3E0E756F000E766F0F
:1021D800E5DD00C045F001C046F0000E011802E13F
:1021E800000E001838E0300E0001FE5D006E00C0E1
:1021F800E6F0300EFF5D0101726F72C1E7F0300E3C
:10220800005D716F71C1E4F0300E015D706F70C1D7
:10221800E5F0000E016EE80E046E030E056E8FECFD
:1022280000F0640E7203F3CF02F0F4CF03F0025013
:102238000024356E03500120366E0A0E7103F3CF69
:1022480000F0F4CF01F000503526015036227051CD
:102258003526000E36220101EC0E736F000E746FE6
:10226800370E756F000E766F99DD00C045F001C01E
:1022780046F0000E011802E1000E001837E0300E9B
:102288000101085D006E00C0E6F0300E095D726F56
:1022980072C1E7F0300E0A5D716F71C1E4F0300E63
:1022A8000B5D706F70C1E5F0000E016EE80E046EF4
:1022B800030E056E8FEC00F0640E7203F3CF02F08C
:1022C800F4CF03F002500024296E035001202A6E37
:1022D8000A0E7103F3CF00F0F4CF01F00050292665
:1022E80001502A2270512926000E2A220101EC0EE3
:1022F800736F000E746F2B0E756F000E766F4EDDC8
:1023080000C045F001C046F0000E011802E1000EC1
:10231800001837E0300E0101155D006E00C0E6F0D0
:10232800300E165D726F72C1E7F0300E175D716F77
:1023380071C1E4F0300E185D706F70C1E5F0000EE9
:10234800016EE80E046E030E056E8FEC00F0640E4D
:102358007203F3CF02F0F4CF03F002500024586E5A
:1023680003500120596E0A0E7103F3CF00F0F4CF29
:1023780001F0005058260150592270515826000E7D
:1023880059220101EC0E736F000E746F750E756F94
:10239800000E766F03DD00C045F001C046F0000E68
:1023A800011802E1000E00183CE0300E0101225D28
:1023B800006E00C0E6F0300E235D726F72C1E7F068
:1023C800300E245D716F71C1E4F0300E255D706FC1
:1023D80070C1E5F0000E016EE80E046E030E056E86
:1023E8008FEC00F0640E7203F3CF02F0F4CF03F029
:1023F8000250002400017F6F03500120806F0A0EF5
:1024080001017103F3CF00F0F4CF01F00050000197
:102418007F27015080230101705100017F27000EA2
:102428008023000E4F1802E1000E4E180DE0000E3A
:10243800361802E1000E351807E0000E591802E1BF
:10244800000E581801E031D0880E0101736F000E9C
:10245800746F756B400E766F000E776F80EC0DF021
:10246800880E736F000E746F5C0E756F000E766FBA
:10247800180E776F000E786F21EC0EF0880E736FD0
:10248800000E746FD60E756F000E766F49EC0EF065
:10249800880E736F000E746F400E756FC0DC0052AB
:1024A80001E1F6D7006A016A13D00101880E736F43
:1024B800000E746F756B400E766F000E776F80ECB0
:1024C8000DF06A91010E006E000E016E01D040D62B
:0224D8001200F0
:1024DA0001016AB18FD06AB38DD006DC0001D351F5
:1024EA00D55D02E1D251D45DD8B083D0880E010106
:1024FA00736F000E746F756B400E766F000E776FF8
:10250A0080EC0DF0880E736F000E746FC80E756F35
:10251A00000E766F090E776F000E786F21EC0EF0C1
:10252A00D2C0D4F0D3C0D5F0D2C073F1620E746FAA
:10253A00010E756F9EEC0DF00001916B620E0101A8
:10254A00736F010E746F76DC00C073F101C074F111
:10255A0083EC0EF000C075F101C076F1880E736F3E
:10256A00000E746F49EC0EF0880E736F000E746FD4
:10257A00DB0E756F000E766F49EC0EF07ACFE2F043
:10258A00000E0001E36F7A6A7B6AE2C073F1E3C06E
:10259A0074F1620E0101756F010E766FD8EC0DF0C1
:1025AA00620E736F010E746F45DC00C073F101C0D7
:1025BA0074F183EC0EF000C075F101C076F1880E5B
:1025CA00736F000E746F49EC0EF0880E736F000E75
:1025DA00746FD60E756F000E766F49EC0EF0880E8A
:1025EA00736F000E746F400E756F18DC005201E1B4
:1025FA00F6D76ED701016A910001D46BD56BE26BF5
:10260A00E36B880E0101736F000E746F756B400ED9
:10261A00766F000E776F80EC0DF0880E736F000EE8
:10262A00746F810E756F000E766F040E776F000E51
:10263A00786F21EC0EF0880E736F000E746FD60E51
:10264A00756F000E766F49EC0EF0880E736F000EF0
:10265A00746F400E756F13EC0FF0005201E1F5D75D
:02266A0012005C
:10266C000900F5CFE6FF0006FBE10106F9E11200D7
:10267C0070C147F071C148F070C173F138EC0DF0C6
:06268C0032EC0DF012001B
:1026920067EC14F006DC0D0E0001D66F0A0ED76F40
:1026A200880E0101736F000E746FD60E756F000EE7
:1026B200766F49EC0EF0880E736F000E746F400E49
:1026C200756F13EC0FF0005201E1F5D744DD0050B5
:1026D200011043E0000E4F1802E1010E4E1810E106
:1026E20001016AB10DD058C070F159C071F149ECC5
:1026F2000FF035C070F136C071F1BFDFEDDE21D0D1
:10270200000E4F1802E1020E4E181BE101016AB1E0
:1027120018D058C070F159C071F149EC0FF035C0B2
:1027220070F136C071F1A9DFD7DE7FC070F180C0D1
:1027320071F149EC0FF029C070F12AC071F19DDFEF
:10274200CBDE4E6A4F6A356A366A296A2A6A586A45
:0E275200596A00017F6B806BB9D7B8D7FFD7EB
:1028CE0010EE29F0BB0E006E010E016E600EF66E5C
:0E28DE00270EF76E000EF86E36EC13F01200A7
:02276000000077
:0A276200496E74657276616C3100F7
:02276C0000006B
:07276E005370656564320041
:07277500537065656431003B
:02277C0000005B
:02277E00000059
:052780004D6F646500CF
:02278500000052
:082787004D6573736167650085
:02278F00000048
:02279100000046
:102793004E6F20506172616D6574657273204F7264
:0927A3002053746F70706564002E
:0A27AC00496E74657276616C3200AC
:0227B600000021
:0527B80053746F700076
:0227BD0000001A
:1027BF005370696E20436F6174696E67204465764C
:1027CF0069636500000000000000000000000000C9
:1027DF0000000000000000000000000000000000EA
:1027EF0000000000000000000000000000000000DA
:0A27FF0050726F67726573733D003E
:022809000000CD
:02280B000000CB
:05280D000000000000C6
:0728120053706565643D0091
:022819000000BD
:10281B0020035500530042002000480049004400AB
:10282B0020004C00690062007200610072007900A8
:10283B00000000000000000000000000000000008D
:10284B0009022900010100C0320904000002030043
:10285B00000009210101000122210007058103402D
:09286B0000010705010340000112
:1028740022034D0069006B0072006F0065006C005C
:1028840065006B00740072006F006E0069006B00DD
:022894006100E1
:102896000600FF0901A10119012940150026FF00C4
:1028A60075089540810219012940750895409102E5
:0128B600C061
:1028B70012010002000000083412010001000102A9
:0228C70000010E
:0428C90004030904F7
:020000040001F9
:08FFF8008EF3FDFFFFFBFFFB90
:00000001FF
